{"abi":[{"type":"constructor","inputs":[{"name":"_factoryContract","type":"address","internalType":"address"},{"name":"_datafeed","type":"address","internalType":"address"}],"stateMutability":"nonpayable"},{"type":"function","name":"_init_","inputs":[{"name":"_startingPriceInUSD","type":"uint256","internalType":"uint256"},{"name":"_coolDownTime","type":"uint256","internalType":"uint256"},{"name":"_taxRate","type":"uint256","internalType":"uint256"},{"name":"_createdBy","type":"address","internalType":"address"}],"outputs":[],"stateMutability":"nonpayable"},{"type":"function","name":"amountPaidForOrb","inputs":[],"outputs":[{"name":"","type":"uint256","internalType":"uint256"}],"stateMutability":"view"},{"type":"function","name":"answerCount","inputs":[],"outputs":[{"name":"","type":"uint256","internalType":"uint256"}],"stateMutability":"view"},{"type":"function","name":"answerQuestion","inputs":[{"name":"_questionAndAnswerCID","type":"string","internalType":"string"},{"name":"_questionId","type":"uint256","internalType":"uint256"}],"outputs":[],"stateMutability":"nonpayable"},{"type":"function","name":"askQuestion","inputs":[{"name":"_questionCID","type":"string","internalType":"string"}],"outputs":[],"stateMutability":"nonpayable"},{"type":"function","name":"buyOrb","inputs":[{"name":"_resellingPrice","type":"uint256","internalType":"uint256"}],"outputs":[],"stateMutability":"payable"},{"type":"function","name":"coolDownTime","inputs":[],"outputs":[{"name":"","type":"uint256","internalType":"uint256"}],"stateMutability":"view"},{"type":"function","name":"createBy","inputs":[],"outputs":[{"name":"","type":"address","internalType":"address"}],"stateMutability":"view"},{"type":"function","name":"createdAt","inputs":[],"outputs":[{"name":"","type":"uint32","internalType":"uint32"}],"stateMutability":"view"},{"type":"function","name":"factoryContract","inputs":[],"outputs":[{"name":"","type":"address","internalType":"address"}],"stateMutability":"view"},{"type":"function","name":"getOrbDetails","inputs":[],"outputs":[{"name":"","type":"tuple","internalType":"struct PendulumOrb.OrbDetails","components":[{"name":"createBy","type":"address","internalType":"address"},{"name":"priceInUSD","type":"uint256","internalType":"uint256"},{"name":"coolDownTime","type":"uint256","internalType":"uint256"},{"name":"createdAt","type":"uint32","internalType":"uint32"},{"name":"taxRate","type":"uint256","internalType":"uint256"},{"name":"taxPaymentTime","type":"uint32[12]","internalType":"uint32[12]"},{"name":"resellingPrice","type":"uint256","internalType":"uint256"},{"name":"questionAnswer","type":"string[]","internalType":"string[]"},{"name":"orbRating","type":"uint256","internalType":"uint256"},{"name":"lastQuestionTime","type":"uint32","internalType":"uint32"},{"name":"isAlive","type":"bool","internalType":"bool"},{"name":"noOfTimesTaxPaid","type":"uint8","internalType":"uint8"},{"name":"questionCount","type":"uint256","internalType":"uint256"},{"name":"answerCount","type":"uint256","internalType":"uint256"},{"name":"amountPaidForOrb","type":"uint256","internalType":"uint256"},{"name":"owner","type":"address","internalType":"address"}]}],"stateMutability":"view"},{"type":"function","name":"getRefund","inputs":[],"outputs":[],"stateMutability":"nonpayable"},{"type":"function","name":"isAlive","inputs":[],"outputs":[{"name":"","type":"bool","internalType":"bool"}],"stateMutability":"view"},{"type":"function","name":"lastQuestionTime","inputs":[],"outputs":[{"name":"","type":"uint32","internalType":"uint32"}],"stateMutability":"view"},{"type":"function","name":"noOfTimesTaxPaid","inputs":[],"outputs":[{"name":"","type":"uint8","internalType":"uint8"}],"stateMutability":"view"},{"type":"function","name":"orbRating","inputs":[],"outputs":[{"name":"","type":"uint256","internalType":"uint256"}],"stateMutability":"view"},{"type":"function","name":"owner","inputs":[],"outputs":[{"name":"","type":"address","internalType":"address"}],"stateMutability":"view"},{"type":"function","name":"payTax","inputs":[],"outputs":[],"stateMutability":"payable"},{"type":"function","name":"priceInUSD","inputs":[],"outputs":[{"name":"","type":"uint256","internalType":"uint256"}],"stateMutability":"view"},{"type":"function","name":"questionAnswer","inputs":[{"name":"","type":"uint256","internalType":"uint256"}],"outputs":[{"name":"","type":"string","internalType":"string"}],"stateMutability":"view"},{"type":"function","name":"questionCount","inputs":[],"outputs":[{"name":"","type":"uint256","internalType":"uint256"}],"stateMutability":"view"},{"type":"function","name":"rateOrb","inputs":[{"name":"_rating","type":"uint8","internalType":"uint8"}],"outputs":[],"stateMutability":"nonpayable"},{"type":"function","name":"resellingPrice","inputs":[],"outputs":[{"name":"","type":"uint256","internalType":"uint256"}],"stateMutability":"view"},{"type":"function","name":"taxPaymentTime","inputs":[{"name":"","type":"uint256","internalType":"uint256"}],"outputs":[{"name":"","type":"uint32","internalType":"uint32"}],"stateMutability":"view"},{"type":"function","name":"taxRate","inputs":[],"outputs":[{"name":"","type":"uint256","internalType":"uint256"}],"stateMutability":"view"},{"type":"function","name":"updateOrb","inputs":[{"name":"_priceInUSD","type":"uint256","internalType":"uint256"},{"name":"_coolDownTime","type":"uint256","internalType":"uint256"},{"name":"_taxRate","type":"uint256","internalType":"uint256"}],"outputs":[],"stateMutability":"nonpayable"}],"bytecode":{"object":"0x60c060405262278d00608052624f1a0060a0526008805460ff60401b1916680100000000000000001790553480156200003757600080fd5b50604051620022cb380380620022cb8339810160408190526200005a91620000a9565b600e80546001600160a01b039384166001600160a01b031991821617909155600f8054929093169116179055620000e1565b80516001600160a01b0381168114620000a457600080fd5b919050565b60008060408385031215620000bd57600080fd5b620000c8836200008c565b9150620000d8602084016200008c565b90509250929050565b60805160a0516121c7620001046000396000505060006110ae01526121c76000f3fe6080604052600436106101a15760003560e01c806394946e77116100e1578063cc37e81d1161008a578063d41edb7b11610064578063d41edb7b14610489578063de11c94a1461049f578063dec84c5e146104cc578063f24ebe25146104f957600080fd5b8063cc37e81d1461042e578063cf09e0d01461044e578063d2ce0db21461047357600080fd5b8063b5843680116100bb578063b5843680146103bf578063c93add5e146103eb578063cc11bad71461040157600080fd5b806394946e7714610377578063aa34a1141461038a578063b2d5ae44146103aa57600080fd5b80635511840e1161014e57806373faa36c1161012857806373faa36c146102d9578063771a3a1d146102f95780637f4cf6b51461030f5780638da5cb5b1461032557600080fd5b80635511840e1461027a578063602bdec81461029c57806369093563146102bc57600080fd5b806327bb967c1161017f57806327bb967c146102075780632912ba5f1461023c5780634136aa351461024457600080fd5b80630bed0502146101a657806310ce1c65146101cf5780631468aa2c146101f1575b600080fd5b3480156101b257600080fd5b506101bc600d5481565b6040519081526020015b60405180910390f35b3480156101db57600080fd5b506101ef6101ea3660046117de565b61050f565b005b3480156101fd57600080fd5b506101bc600c5481565b34801561021357600080fd5b5061022761022236600461180a565b6105a3565b60405163ffffffff90911681526020016101c6565b6101ef6105d3565b34801561025057600080fd5b5060085461026a9068010000000000000000900460ff1681565b60405190151581526020016101c6565b34801561028657600080fd5b5061028f6107af565b6040516101c6919061192c565b3480156102a857600080fd5b506101ef6102b7366004611b33565b6109c1565b3480156102c857600080fd5b506008546102279063ffffffff1681565b3480156102e557600080fd5b506101ef6102f4366004611b7f565b610c2d565b34801561030557600080fd5b506101bc60065481565b34801561031b57600080fd5b506101bc60075481565b34801561033157600080fd5b506001546103529073ffffffffffffffffffffffffffffffffffffffff1681565b60405173ffffffffffffffffffffffffffffffffffffffff90911681526020016101c6565b6101ef61038536600461180a565b610d68565b34801561039657600080fd5b506101ef6103a5366004611ba3565b610f80565b3480156103b657600080fd5b506101ef611143565b3480156103cb57600080fd5b50600b546103d99060ff1681565b60405160ff90911681526020016101c6565b3480156103f757600080fd5b506101bc60105481565b34801561040d57600080fd5b506000546103529073ffffffffffffffffffffffffffffffffffffffff1681565b34801561043a57600080fd5b506101ef610449366004611bfd565b61137d565b34801561045a57600080fd5b5060085461022790640100000000900463ffffffff1681565b34801561047f57600080fd5b506101bc60035481565b34801561049557600080fd5b506101bc60025481565b3480156104ab57600080fd5b50600e546103529073ffffffffffffffffffffffffffffffffffffffff1681565b3480156104d857600080fd5b506104ec6104e736600461180a565b6114f3565b6040516101c69190611c42565b34801561050557600080fd5b506101bc60045481565b60005473ffffffffffffffffffffffffffffffffffffffff163314610595576040517f08c379a000000000000000000000000000000000000000000000000000000000815260206004820152601f60248201527f796f752063616e6e6f742061636365737320746869732066756e6374696f6e0060448201526064015b60405180910390fd5b600292909255600355600655565b600981600c81106105b357600080fd5b60089182820401919006600402915054906101000a900463ffffffff1681565b60015473ffffffffffffffffffffffffffffffffffffffff16331461067a576040517f08c379a000000000000000000000000000000000000000000000000000000000815260206004820152602160248201527f796f7520617265206e6f7420746865206f776e6572206f662074686973206f7260448201527f6200000000000000000000000000000000000000000000000000000000000000606482015260840161058c565b600b805460ff1611156106e9576040517f08c379a000000000000000000000000000000000000000000000000000000000815260206004820152600d60248201527f6f726720636f6d706c6574656400000000000000000000000000000000000000604482015260640161058c565b600060646006546004546106fd9190611c84565b6107079190611ca1565b9050600061071361159f565b90508181101561077f576040517f08c379a000000000000000000000000000000000000000000000000000000000815260206004820152601b60248201527f696e76616c696420616d6f756e74207061696420666f72207461780000000000604482015260640161058c565b600b805460ff1690600061079283611cdc565b91906101000a81548160ff021916908360ff160217905550505050565b6107b76116ff565b60408051610200810182526000805473ffffffffffffffffffffffffffffffffffffffff168252600254602083015260035482840152600854640100000000900463ffffffff16606083015260065460808301528251610180810193849052909260a083019190600990600c908287855b82829054906101000a900463ffffffff1663ffffffff16815260200190600401906020826003010492830192600103820291508084116108285790505050505050815260200160045481526020016005805480602002602001604051908101604052809291908181526020016000905b828210156109445783829060005260206000200180546108b790611cfb565b80601f01602080910402602001604051908101604052809291908181526020018280546108e390611cfb565b80156109305780601f1061090557610100808354040283529160200191610930565b820191906000526020600020905b81548152906001019060200180831161091357829003601f168201915b505050505081526020019060010190610898565b50505090825250600754602082015260085463ffffffff8116604083015260ff68010000000000000000909104811615156060830152600b54166080820152600c5460a0820152600d5460c082015260105460e082015260015473ffffffffffffffffffffffffffffffffffffffff166101009091015292915050565b600b5460099060ff16600c81106109da576109da611d4e565b600891828204019190066004029054906101000a900463ffffffff1663ffffffff16421115610ab357600880547fffffffffffffffffffffffffffffffffffffffffffffff00ffffffffffffffff1690556040517f08c379a000000000000000000000000000000000000000000000000000000000815260206004820152602560248201527f796f75206661696c656420746f20706179207468652074617820666565206f6e60448201527f2074696d65000000000000000000000000000000000000000000000000000000606482015260840161058c565b60015473ffffffffffffffffffffffffffffffffffffffff163314610b5a576040517f08c379a000000000000000000000000000000000000000000000000000000000815260206004820152602160248201527f796f7520617265206e6f7420746865206f776e6572206f662074686973206f7260448201527f6200000000000000000000000000000000000000000000000000000000000000606482015260840161058c565b600854600354610b709163ffffffff1690611d7d565b4211610bd8576040517f08c379a000000000000000000000000000000000000000000000000000000000815260206004820152601a60248201527f6f7262206973206e6f7420636f6f6c656420646f776e20796574000000000000604482015260640161058c565b600580546001810182556000919091527f036b6384b5eca791c62761152d0c79bb0604c104a5fb6f4eb0703f3154bb3db001610c148282611ddf565b50600c8054906000610c2583611ef9565b919050555050565b60058160ff161115610c9b576040517f08c379a000000000000000000000000000000000000000000000000000000000815260206004820152601560248201527f696e76616c696420726174696e67206e756d6265720000000000000000000000604482015260640161058c565b60015473ffffffffffffffffffffffffffffffffffffffff163314610d42576040517f08c379a000000000000000000000000000000000000000000000000000000000815260206004820152602160248201527f596f7520617265206e6f7420746865206f776e6572206f662074686973206f7260448201527f6200000000000000000000000000000000000000000000000000000000000000606482015260840161058c565b600060028260ff16600754610d579190611d7d565b610d619190611ca1565b6007555050565b60085468010000000000000000900460ff16610de0576040517f08c379a000000000000000000000000000000000000000000000000000000000815260206004820152600b60248201527f6f72622069732064656164000000000000000000000000000000000000000000604482015260640161058c565b6000610dea61159f565b9050600254811015610e58576040517f08c379a000000000000000000000000000000000000000000000000000000000815260206004820152601d60248201527f696e76616c696420707269636520616d6f756e742070726f7669646564000000604482015260640161058c565b60008211610ec2576040517f08c379a000000000000000000000000000000000000000000000000000000000815260206004820152601760248201527f696e76616c696420726573656c6c696e67207072696365000000000000000000604482015260640161058c565b600180547fffffffffffffffffffffffff00000000000000000000000000000000000000001633908117909155600e546040517fabc36e6e000000000000000000000000000000000000000000000000000000008152306004820152602481019290925273ffffffffffffffffffffffffffffffffffffffff169063abc36e6e90604401600060405180830381600087803b158015610f6057600080fd5b505af1158015610f74573d6000803e3d6000fd5b50503460105550505050565b600e5473ffffffffffffffffffffffffffffffffffffffff163314611001576040517f08c379a000000000000000000000000000000000000000000000000000000000815260206004820152600e60248201527f696e76616c696420616363657373000000000000000000000000000000000000604482015260640161058c565b6000805473ffffffffffffffffffffffffffffffffffffffff83167fffffffffffffffffffffffff0000000000000000000000000000000000000000918216179091556001805490911681556002859055600384905560068390556008805464010000000063ffffffff42169081027fffffffffffffffffffffffffffffffffffffffffffffffff0000000000000000909216171790555b600d8163ffffffff16101561113c57426110d37f000000000000000000000000000000000000000000000000000000000000000083611f31565b6110dd9190611f59565b60096110ea600184611f7d565b63ffffffff16600c811061110057611100611d4e565b600891828204019190066004026101000a81548163ffffffff021916908363ffffffff160217905550808061113490611f9a565b915050611099565b5050505050565b60015473ffffffffffffffffffffffffffffffffffffffff1633146111ea576040517f08c379a000000000000000000000000000000000000000000000000000000000815260206004820152602160248201527f796f7520617265206e6f7420746865206f776e6572206f662074686973206f7260448201527f6200000000000000000000000000000000000000000000000000000000000000606482015260840161058c565b600354600854611200919063ffffffff16611d7d565b421180156112125750600d54600c5414155b156112f557600880547fffffffffffffffffffffffffffffffffffffffffffffff00ffffffffffffffff16905560105460405160009133918381818185875af1925050503d8060008114611282576040519150601f19603f3d011682016040523d82523d6000602084013e611287565b606091505b50509050806112f2576040517f08c379a000000000000000000000000000000000000000000000000000000000815260206004820152600c60248201527f6e6f7420726566756e6465640000000000000000000000000000000000000000604482015260640161058c565b50565b6040517f08c379a000000000000000000000000000000000000000000000000000000000815260206004820152602560248201527f636f6e646974696f6e7320646f6573206e6f74206d657420666f72207265667560448201527f6e64696e67000000000000000000000000000000000000000000000000000000606482015260840161058c565b60005473ffffffffffffffffffffffffffffffffffffffff1633146113fe576040517f08c379a000000000000000000000000000000000000000000000000000000000815260206004820152601a60248201527f6f6e6c79206f776e65722063616e206163636573732074686973000000000000604482015260640161058c565b60005473ffffffffffffffffffffffffffffffffffffffff16331461147f576040517f08c379a000000000000000000000000000000000000000000000000000000000815260206004820152600e60248201527f696e76616c696420657870657274000000000000000000000000000000000000604482015260640161058c565b816005828154811061149357611493611d4e565b9060005260206000200190816114a99190611ddf565b50600d80549060006114ba83611ef9565b9091555050600880547fffffffffffffffffffffffffffffffffffffffffffffffffffffffff00000000164263ffffffff161790555050565b6005818154811061150357600080fd5b90600052602060002001600091509050805461151e90611cfb565b80601f016020809104026020016040519081016040528092919081815260200182805461154a90611cfb565b80156115975780601f1061156c57610100808354040283529160200191611597565b820191906000526020600020905b81548152906001019060200180831161157a57829003601f168201915b505050505081565b600080600f60009054906101000a900473ffffffffffffffffffffffffffffffffffffffff1673ffffffffffffffffffffffffffffffffffffffff1663feaf968c6040518163ffffffff1660e01b815260040160a060405180830381865afa15801561160f573d6000803e3d6000fd5b505050506040513d601f19601f820116820180604052508101906116339190611fdc565b5050509150506000600f60009054906101000a900473ffffffffffffffffffffffffffffffffffffffff1673ffffffffffffffffffffffffffffffffffffffff1663313ce5676040518163ffffffff1660e01b8152600401602060405180830381865afa1580156116a8573d6000803e3d6000fd5b505050506040513d601f19601f820116820180604052508101906116cc919061202c565b90506116d9816012612049565b6116e490600a612182565b6116ee8334611c84565b6116f89190611ca1565b9250505090565b604051806102000160405280600073ffffffffffffffffffffffffffffffffffffffff1681526020016000815260200160008152602001600063ffffffff168152602001600081526020016117526117bf565b8152602001600081526020016060815260200160008152602001600063ffffffff168152602001600015158152602001600060ff168152602001600081526020016000815260200160008152602001600073ffffffffffffffffffffffffffffffffffffffff1681525090565b604051806101800160405280600c906020820280368337509192915050565b6000806000606084860312156117f357600080fd5b505081359360208301359350604090920135919050565b60006020828403121561181c57600080fd5b5035919050565b8060005b600c81101561184c57815163ffffffff16845260209384019390910190600101611827565b50505050565b6000815180845260005b818110156118785760208185018101518683018201520161185c565b5060006020828601015260207fffffffffffffffffffffffffffffffffffffffffffffffffffffffffffffffe0601f83011685010191505092915050565b600082825180855260208086019550808260051b84010181860160005b8481101561191f577fffffffffffffffffffffffffffffffffffffffffffffffffffffffffffffffe086840301895261190d838351611852565b988401989250908301906001016118d3565b5090979650505050505050565b6020815261195360208201835173ffffffffffffffffffffffffffffffffffffffff169052565b602082015160408201526040820151606082015260006060830151611980608084018263ffffffff169052565b50608083015160a083015260a083015161199d60c0840182611823565b5060c083015161024083015260e0830151610360806102608501526119c66103808501836118b6565b91506101008501516102808501526101208501516119ed6102a086018263ffffffff169052565b5061014085015115156102c085015261016085015160ff166102e08501526101808501516103008501526101a08501516103208501526101c08501516103408501526101e09094015173ffffffffffffffffffffffffffffffffffffffff169390920192909252919050565b7f4e487b7100000000000000000000000000000000000000000000000000000000600052604160045260246000fd5b600082601f830112611a9957600080fd5b813567ffffffffffffffff80821115611ab457611ab4611a59565b604051601f83017fffffffffffffffffffffffffffffffffffffffffffffffffffffffffffffffe0908116603f01168101908282118183101715611afa57611afa611a59565b81604052838152866020858801011115611b1357600080fd5b836020870160208301376000602085830101528094505050505092915050565b600060208284031215611b4557600080fd5b813567ffffffffffffffff811115611b5c57600080fd5b611b6884828501611a88565b949350505050565b60ff811681146112f257600080fd5b600060208284031215611b9157600080fd5b8135611b9c81611b70565b9392505050565b60008060008060808587031215611bb957600080fd5b843593506020850135925060408501359150606085013573ffffffffffffffffffffffffffffffffffffffff81168114611bf257600080fd5b939692955090935050565b60008060408385031215611c1057600080fd5b823567ffffffffffffffff811115611c2757600080fd5b611c3385828601611a88565b95602094909401359450505050565b602081526000611b9c6020830184611852565b7f4e487b7100000000000000000000000000000000000000000000000000000000600052601160045260246000fd5b8082028115828204841417611c9b57611c9b611c55565b92915050565b600082611cd7577f4e487b7100000000000000000000000000000000000000000000000000000000600052601260045260246000fd5b500490565b600060ff821660ff8103611cf257611cf2611c55565b60010192915050565b600181811c90821680611d0f57607f821691505b602082108103611d48577f4e487b7100000000000000000000000000000000000000000000000000000000600052602260045260246000fd5b50919050565b7f4e487b7100000000000000000000000000000000000000000000000000000000600052603260045260246000fd5b80820180821115611c9b57611c9b611c55565b601f821115611dda57600081815260208120601f850160051c81016020861015611db75750805b601f850160051c820191505b81811015611dd657828155600101611dc3565b5050505b505050565b815167ffffffffffffffff811115611df957611df9611a59565b611e0d81611e078454611cfb565b84611d90565b602080601f831160018114611e605760008415611e2a5750858301515b7fffffffffffffffffffffffffffffffffffffffffffffffffffffffffffffffff600386901b1c1916600185901b178555611dd6565b6000858152602081207fffffffffffffffffffffffffffffffffffffffffffffffffffffffffffffffe08616915b82811015611ead57888601518255948401946001909101908401611e8e565b5085821015611ee957878501517fffffffffffffffffffffffffffffffffffffffffffffffffffffffffffffffff600388901b60f8161c191681555b5050505050600190811b01905550565b60007fffffffffffffffffffffffffffffffffffffffffffffffffffffffffffffffff8203611f2a57611f2a611c55565b5060010190565b63ffffffff818116838216028082169190828114611f5157611f51611c55565b505092915050565b63ffffffff818116838216019080821115611f7657611f76611c55565b5092915050565b63ffffffff828116828216039080821115611f7657611f76611c55565b600063ffffffff808316818103611fb357611fb3611c55565b6001019392505050565b805169ffffffffffffffffffff81168114611fd757600080fd5b919050565b600080600080600060a08688031215611ff457600080fd5b611ffd86611fbd565b945060208601519350604086015192506060860151915061202060808701611fbd565b90509295509295909350565b60006020828403121561203e57600080fd5b8151611b9c81611b70565b60ff8181168382160190811115611c9b57611c9b611c55565b600181815b808511156120bb57817fffffffffffffffffffffffffffffffffffffffffffffffffffffffffffffffff048211156120a1576120a1611c55565b808516156120ae57918102915b93841c9390800290612067565b509250929050565b6000826120d257506001611c9b565b816120df57506000611c9b565b81600181146120f557600281146120ff5761211b565b6001915050611c9b565b60ff84111561211057612110611c55565b50506001821b611c9b565b5060208310610133831016604e8410600b841016171561213e575081810a611c9b565b6121488383612062565b807fffffffffffffffffffffffffffffffffffffffffffffffffffffffffffffffff0482111561217a5761217a611c55565b029392505050565b6000611b9c60ff8416836120c356fea2646970667358221220c4f89e7887745d4b21888e7d45b59d964e5a2c02094c43c19d4d0e576dc1094264736f6c63430008140033","linkReferences":{}},"methodIdentifiers":{"_init_(uint256,uint256,uint256,address)":"aa34a114","amountPaidForOrb()":"c93add5e","answerCount()":"0bed0502","answerQuestion(string,uint256)":"cc37e81d","askQuestion(string)":"602bdec8","buyOrb(uint256)":"94946e77","coolDownTime()":"d2ce0db2","createBy()":"cc11bad7","createdAt()":"cf09e0d0","factoryContract()":"de11c94a","getOrbDetails()":"5511840e","getRefund()":"b2d5ae44","isAlive()":"4136aa35","lastQuestionTime()":"69093563","noOfTimesTaxPaid()":"b5843680","orbRating()":"7f4cf6b5","owner()":"8da5cb5b","payTax()":"2912ba5f","priceInUSD()":"d41edb7b","questionAnswer(uint256)":"dec84c5e","questionCount()":"1468aa2c","rateOrb(uint8)":"73faa36c","resellingPrice()":"f24ebe25","taxPaymentTime(uint256)":"27bb967c","taxRate()":"771a3a1d","updateOrb(uint256,uint256,uint256)":"10ce1c65"},"id":3}